:020000040800F2
:10000000D006002089010008CF0900084109000836
:10001000CD0900085D050008570C0008000000002D
:10002000000000000000000000000000D3090008EC
:100030001107000800000000D1090008510C000859
:10004000A3010008A3010008A3010008A301000800
:10005000A3010008A3010008A3010008A3010008F0
:10006000A3010008A3010008A3010008A3010008E0
:10007000A3010008A3010008A3010008A3010008D0
:10008000A3010008A3010008A3010008A3010008C0
:10009000A3010008A3010008A3010008A3010008B0
:1000A000A3010008A3010008A3010008A3010008A0
:1000B000A3010008A3010008A3010008A301000890
:1000C000A3010008A3010008A3010008A301000880
:1000D000A3010008A3010008A3010008A301000870
:1000E000A3010008A3010008A301000800F002F822
:1000F00000F03AF80AA090E8000C82448344AAF188
:100100000107DA4501D100F02FF8AFF2090EBAE885
:100110000F0013F0010F18BFFB1A43F0010318473B
:100120005C0E00007C0E0000103A24BF78C878C135
:10013000FAD8520724BF30C830C144BF04680C60ED
:10014000704700000023002400250026103A28BF35
:1001500078C1FBD8520728BF30C148BF0B60704739
:100160001FB51FBD10B510BD00F063F81146FFF7B5
:10017000F7FF00F05BFE00F081F803B4FFF7F2FF39
:1001800003BC00F089F8000009488047094800478F
:10019000FEE7FEE7FEE7FEE7FEE7FEE7FEE7FEE737
:1001A000FEE7FEE704480549054A064B7047000094
:1001B000550C0008ED000008D0000020D0060020FB
:1001C000D0020020D002002010B5203AC0F00B80F1
:1001D000B1E81850203AA0E81850B1E81850A0E84B
:1001E0001850BFF4F5AF5FEA027C24BFB1E81850A5
:1001F000A0E8185044BF18C918C0BDE810405FEA15
:10020000827C24BF51F8043B40F8043B08BF704790
:10021000D20728BF31F8023B48BF11F8012B28BF95
:1002200020F8023B48BF00F8012B70477047704729
:100230007047754600F02CF8AE46050069465346F7
:1002400020F00700854618B020B5FFF7ABFFBDE8EA
:1002500020404FF000064FF000074FF000084FF02D
:10026000000B21F00701AC46ACE8C009ACE8C009BE
:10027000ACE8C009ACE8C0098D46704710B504462B
:10028000AFF300802046BDE81040FFF776BF0000C6
:10029000004870476C00002001491820ABBEFEE703
:1002A000260002007047000007480168C90702D015
:1002B0000168C90501D404207047016841F4800138
:1002C00001600020704700000824014038B5044652
:1002D00000200090032C01D9022038BD092000F035
:1002E00035FA8DF800400321684600F0EFFB00204E
:1002F00038BD00002DE9F843040041D0E07DE8B3AB
:1003000010283DD8207801283AD86078012837D8BD
:10031000A078012834D8E078012831D82079012844
:100320002ED8607901282BD8207E072828D80026CF
:1003300035461CE0A019C079112821D8072801D81A
:10034000002109E0092802D80121083803E00F281C
:100350000BD802210A38C0B200958DF800108DF834
:100360000100684600F0EEFA40B9761CF6B2E07D76
:10037000B042DFD8A079FFF7A9FF00E000E010B19C
:100380000220BDE8F8837349086820F00100086086
:100390000868A27840EA42000860081F02682378D3
:1003A00042EA032202600A68637842EA03220A6092
:1003B0000A68E37842EAC3220A600A68237942EABB
:1003C00003520A600268637942EA43120260614A9A
:1003D0002432106820F4700010601068E37D5E4ED7
:1003E00006EB03531843106000201F2307268BE001
:1003F000062818D2574F2C37D7F8008000EB800919
:1004000003FA09FC28EA0C08C7F8008004EB000C8A
:100410009CF80780D7F800C008FA09F848EA0C08E9
:10042000C7F8008033E00C281AD2DFF828C10CF19D
:10043000280CDCF80070A0F1060808EB880903FA24
:1004400009F827EA0807CCF800702718DCF80080C4
:10045000FF7907FA09F747EA0807CCF8007016E0B9
:10046000D2F80080A0F10C0707EB870703FA07FC1E
:1004700028EA0C08C2F8008004EB000C9CF807C0C6
:100480000CFA07FC17684CEA070CC2F800C004EB32
:10049000000C9CF80770092F1BD8DFF8B89009F101
:1004A0000809D9F8008007EB470706FA07F728EA9A
:1004B0000708C9F800809CF807C0277E0CEB4C0C9D
:1004C00007FA0CF7D9F800C047EA0C07C9F8007022
:1004D00018E0DFF880C00CF1040CDCF800800A3F63
:1004E00007EB470906FA09F728EA0708CCF8008065
:1004F00094F81880DCF8007008FA09F848EA070850
:10050000CCF80080401CC0B2E77D87423FF670AF58
:10051000086840F0010008604FF47A720095009876
:10052000401C00909042FAD3086840F00100086037
:10053000086840F00400086042F2107000E030B13A
:100540000A68520701D5401EF9D2002019E703209E
:1005500017E70000082401400000F0FFFEE700005C
:1005600010B504007ED0207806287BD86078032858
:10057000FBD8A078012875D8E078012872D82079B6
:1005800002286FD8607902286CD8A079012869D830
:10059000E079012866D8207A012863D8607A01289A
:1005A00060D8A07A01285DD8606900285AD0E06838
:1005B000002857D02069002854D0002000F0AAF865
:1005C000207800EB80008100424801448A6822F0D4
:1005D00001028A60217801EB810100EB81018A68C8
:1005E000637842EA03328A60217801EB810100EBF3
:1005F00081018A68A37842EA83128A60217801EB3C
:10060000810100EB81018A68E37842EAC3128A60C3
:10061000217801EB810100EB81018A68237942EAAC
:1006200003228A60217801EB810100EB81018A6855
:10063000637942EA83228A60217801EB810100EB31
:1006400081018A68A37942EA43128A60217801EB2A
:10065000810100EB81018A68E37942EA03128A6032
:10066000217800E033E001EB810100EB81018A6831
:10067000237A42EAC3028A60217801EB810100EB10
:1006800081018A68637A42EA83028A60217801EBF9
:10069000810100EB81018A68A37A42EA43028A6001
:1006A0002278616902EB820200EB8202D16022783B
:1006B000E16802EB820200EB82021161227821697B
:1006C00002EB820200EB82004161002010BD01209C
:1006D00010BD00000000024010B5062801D901201D
:1006E00010BD0A4A00EB800102EB8101CB685BB1CF
:1006F000536884000F20A04003435360886840F093
:1007000001008860002010BD022010BD00000240E2
:1007100070470000054A5369012181400B4202D114
:1007200050690843506100207047000000100240EB
:10073000054AD369012181400B4202D1D0690843A7
:10074000D06100207047000000100240054A936904
:10075000012181400B4202D1906908439061002041
:100760007047000000100240154910B5134B0A688D
:10077000984202D842F0080201E022F008020A6022
:10078000104A90420A6802D942F010020A6022F030
:1007900007020A600FD90C4B00EB03040B4B9C4281
:1007A00002D842F0010005E0094C2044984202D8EA
:1007B00042F002000860002010BD000000127A0024
:1007C0000020024000366E01FFC991FEFF356E0128
:1007D000FF9323FD70B5044600F00EF80546601C3B
:1007E00002D004480078044400F006F8401BA04200
:1007F000FAD370BD040000200148806870470000F3
:10080000040000200248816802781144816070472A
:1008100004000020074810B5016841F01001016094
:10082000032000F067F80F2000F006F800F024F82D
:10083000002010BD0020024070B50D4D04464FF45D
:100840007A712878B1FBF0F00A490968B1FBF0F041
:1008500000F062F848B9102C07D200222146501E41
:1008600000F028F800206C6070BD012070BD000011
:1008700004000020100000200C4808B5816941F0F8
:1008800001018161816901F001010091C16941F0BB
:100890008051C161C06900F08050009004484168F7
:1008A00021F0E06141F00071416008BD001002409C
:1008B00000000140F0B40E4B1B680C46C3F302234A
:1008C000C3F10705042D00D90425191D072901D2FC
:1008D000002300E0DB1E012606FA05F1491E214037
:1008E00099409E40761E16403143F0BC00F0B4B9EA
:1008F0000CED00E0064900F0070208684FF6FF0320
:10090000184040EA0220034A104308607047000084
:100910000CED00E00000FA0510B5401EB0F1807F3C
:1009200001D3012010BD4FF0E02460610F2160175A
:1009300000F092F90020A06107202061002010BD86
:10094000FEE7000070B504000BD02078062808D818
:1009500061780F2905D8A178032902D8E178032905
:1009600001D9022070BD184951F82050801CC0B236
:10097000FFF7ECFE60780F2108280FD22A6880006C
:1009800081408A432A60E078A17840EA810061785A
:100990008900884029680843286012E00F2810D891
:1009A000800020388140686888436860E078A178DA
:1009B00040EA8100617889002039884069680843ED
:1009C0006860002070BD000014000020FEE7FEE714
:1009D0007047704778B50546344885422DD8344C69
:1009E0002068400CC00704D0324E606840F480306C
:1009F00007E020684008C0071FD02F4E606820F431
:100A000080306060002000902C48854202D904208C
:100A10008DF801002A48854202D902208DF8000095
:100A20000121684600F052F80321684600F04EF8B4
:100A3000B5FBF6F0811E0F2901D3022078BD616855
:100A400021F47011616061681E4A02EB804001432D
:100A50006160206840F08070206042F210710846AA
:100A600000E008B32268920101D4401EF9D2606808
:100A700020F003006060606840F00200606000E009
:100A800091B16068C0F38100022801D0491EF7D2FD
:100A90000D489DF8011001709DF8021041709DF8FD
:100AA00003108170002078BD032078BD00A24A04A5
:100AB0000010024000127A0000093D00005125029A
:100AC000001BB7000000F8FF3000002010B5B0B3E5
:100AD000234A244B31B1012913D0022920D0032904
:100AE0003CD12DE0C1780F2938D8516821F0F001B0
:100AF00051605168C47841EA04115160C07898701F
:100B00002AE04178072929D8516821F4E061516031
:100B10005168447841EA04215160407818701BE024
:100B2000817807291AD8516821F4605151605168C1
:100B3000847841EAC4215160807858700CE00DE05F
:100B4000017803290AD8516821F440415160516865
:100B5000007841EA80305060002010BD022010BDB6
:100B6000001002403000002010B50E4C80B101286A
:100B700001D0022010BD0520FFF7E8FD206840F4F9
:100B8000803020602068400CC007FBD0002010BDE2
:100B9000206840F00100206020684008C007FBD0BA
:100BA000F4E7000000100240094B10B553F8204054
:100BB00029B1012903D0022901D0032906D1044813
:100BC0001146001F006800F057F8606310BD000078
:100BD0003C0000201D4A52F8200091B101291CD090
:100BE000022926D003290BD1C16921F4E041C1615A
:100BF000C16941F4C041C161016A41F4805101629F
:100C00007047816921F070018161816941F0600163
:100C10008161016A41F00101F1E7816921F4E0415C
:100C20008161816941F4C0418161016A41F0100133
:100C3000E5E7C16921F07001C161C16941F060015E
:100C4000C161016A41F48071D9E700003C000020D5
:100C5000FFF7D8BD7047FEE70907090E002804DB3F
:100C600000F1E02080F80014704700F00F0000F160
:100C7000E02080F8141D704748436421B0FBF1F078
:100C80007047000006490878042801D2012202E0DA
:100C90000222001F82404968D0B2B1FBF0F07047D9
:100CA00030000020014840687047000030000020FC
:100CB00070B505460020FFF73BFD2878424951F802
:100CC0002040288BE062091F288B0860A97EFFF76F
:100CD000D3FF6063FFF7D6FF3C4EB04207D2FFF769
:100CE000E1FFB04203D0FFF7CDFF410002E0FFF784
:100CF000C9FF0146686908B1884202D94FF6FF7002
:100D000002E0B1FBF0F0401EA062A88B6062002000
:100D1000206021686A7841EA022121602168AA786E
:100D200041EA421121602168EA7841EA021121601A
:100D300021682A7941EAC201216021686A7941EA81
:100D4000820121602168AA7941EA4201216021687B
:100D5000EA791143216021682A7A41EAC2112160AF
:100D6000606061686A7A41EAC21161606168AA7A6A
:100D700041EA021161606168EA7A41EAC201616098
:100D8000A060A068297B40EAC130A060A068697BB0
:100D900040EA8130A060A068A97B40EA0130A060F1
:100DA000A068E97B40EA0120A060A068297C40EAB5
:100DB000C110A060A068697C40EA0110A060A06832
:100DC000A97C0843A06070BD3C00002000512502B2
:100DD00010B5040004D06068FFF7C6FC70B901E0EC
:100DE000022010BD2078FFF7BFFE38B96068FFF71A
:100DF000F1FD0C4A616800285160F2D00A48016890
:100E000041F00101016042F2107102685208D207FC
:100E100001D1491EF9D2416821F00301416003204C
:100E200010BD00003000002000100240A2B0FFF70B
:100E3000F1FC0220FFF78AFC274CD4E90201CDE93E
:100E40001E011EA8FFF7C4FF2068209020A8FFF70E
:100E500079FD0220FFF73AFA3C2204F1100101A8C3
:100E6000FFF7B2F901A8FFF745FA182204F14C0187
:100E700018A8FFF7A9F918A8FFF772FB0020FFF7E1
:100E80002BFCFFF711FA6068219021A8FFF75AFDAB
:100E9000202204F1640110A8FFF796F910A8FFF7CB
:100EA00007FF00210846FFF795FE0C4E0C4C642509
:100EB0004FF480570095002330883A46194600F0D9
:100EC00011F8C2B2002122700846FFF76DFE3220F1
:100ED000FFF780FCEEE70000F80E00084C00002051
:100EE0000000002010B5401A029CE41A6043511A19
:100EF00090FBF1F0184410BD020D00020000020347
:100F00000100000000A24A040101010000000008E5
:100F100009000000000000000000000000000002C6
:100F200007000000000000000000000000000000BA
:100F300000000000000000000000000000000000B1
:100F4000000000000002000101010100000000009B
:100F50004C2401404C000020020000000000000072
:100F6000000000010100000000000000000000007F
:100F700040420F00E8036400000000009C0F0008DE
:100F8000000000204C00000028010008E80F0008C5
:100F90004C0000208406000044010008000000000E
:100FA00001000000100000000000000000127A00A4
:100FB00000080140000C01400010014000140140F5
:100FC00000180140001C014000200140000000000A
:100FD000000000000000000000000040000400408D
:080FE00000080040000C004075
:04000005080000ED02
:00000001FF
